:100000000C947F030C94C6030C94C6030C94C60393
:100010000C94C6030C94C6030C94C6030C94C6033C
:100020000C94C6030C94C6030C945A270C94162700
:100030000C948A300C94C6030C94C6030C94C6032B
:100040000C94C6030C94C6030C94C6030C94C6030C
:100050000C94C6030C9466300C94C6030C94C6032F
:100060000C94C6030C94C6030C94C6030C94C603EC
:100070000C94C6030C94C6030C94C6030C94C603DC
:100080000C94C6030C94C6030C94C6030C94C603CC
:100090000C94C6030C94C6030C94C6030C94C603BC
:1000A0000C94C6030C94C6030C94C6030501090204
:1000B000A10185020901A100050919012905150001
:1000C00025019505750181029501750381010501E1
:1000D000093009311581257F950275088106093897
:1000E0001581257F950175088106050C0A380215D2
:1000F00081257F950175088106C0C005010980A191
:1001000001850319012AB700150126B7009501756D
:10011000108100C0050C0901A101850419012AA064
:1001200002150126A002950175108100C005010984
:1001300006A1018505050719E029E71500250195A8
:1001400008750181020507190029EF1500250195A1
:10015000F0750181020508190129059505750191C0
:1001600002950175039101C00660FF0961A10109B3
:1001700062150026FF0095207508810209631500AD
:1001800026FF00952075089102C005010906A1010E
:10019000050719E029E71500250195087501810279
:1001A0009501750881010507190029FF150026FF33
:1001B0000095067508810005081901290595057542
:1001C000019102950175039101C00000000000003B
:1001D000000000000000000000000000000000001F
:1001E00000000000000000000000000000007E0F82
:1001F00000D4FFFFFFC700000078000000000000EF
:1002000000002A2B28000000000000000000000071
:10021000000000000029000000002C1E34202122D4
:1002200024342627252E362D3738271E1F2021223D
:10023000232425263333362E37381F0405060708B6
:10024000090A0B0C0D0E0F101112131415161718A6
:10025000191A1B1C1D2F3130232D350405060708E4
:10026000090A0B0C0D0E0F10111213141516171886
:10027000191A1B1C1D2F3130354C000101010101E1
:10028000010101010202020202020202020303034F
:10029000030303030304040404040404050505051F
:1002A00005060606060607070707070808080809DF
:1002B0000909090A0A0A0B0B0B0C0C0C0D0D0D0E8B
:1002C0000E0E0F0F0F101011111112121313141420
:1002D000151516161717181819191A1A1B1B1C1D95
:1002E0001D1E1E1F202021222223242425262627EE
:1002F0002829292A2B2C2D2D2E2F30313232333420
:1003000035363738393A3B3C3D3E3F404142434425
:1003100045464748494A4C4D4E4F50515354555607
:1003200058595A5B5D5E5F616264656668696B6CB3
:100330006D6F7072737577787A7B7D7E808283852E
:1003400087888A8C8E8F91939596989A9C9EA0A26E
:10035000A3A5A7A9ABADAFB1B3B5B7BABCBEC0C278
:10036000C4C6C9CBCDCFD1D4D6D8DBDDDFE2E4E73C
:10037000E9EBEEF0F3F5F8FAFDFFFFAA7F55402216
:1003800023252628292A2C2D2F3032333536383A8A
:100390003B3D3E4042434547494A4C4E50515355E0
:1003A00057595A5C5E6062646668696B6D6F717301
:1003B0007577797B7D7F81838587898A8C8E909202
:1003C0009496989A9C9E9FA1A3A5A7A8AAACAEAF0D
:1003D000B1B3B4B6B8B9BBBCBEBFC1C2C3C5C6C752
:1003E000C9CACBCCCDCED0D1D2D2D3D4D5D6D7D703
:1003F000D8D9D9DADADBDBDBDCDCDCDCDCDDDDDD4B
:10040000DDDCDCDCDCDCDBDBDBDADAD9D9D8D7D746
:10041000D6D5D4D3D2D2D1D0CECDCCCBCAC9C7C6F3
:10042000C5C3C2C1BFBEBCBBB9B8B6B4B3B1AFAE31
:10043000ACAAA8A7A5A3A19F9E9C9A9896949290D7
:100440008E8C8A89878583817F7D7B7977757371AF
:100450006F6D6B6968666462605E5C5A595755538C
:1004600051504E4C4A4947454342403E3D3B3A3845
:1004700036353332302F2D2C2A292826252322AC3D
:1004800000A842AB00AD00AE00AF00B200B100B3B7
:1004900041C35CC25CC45CCB5CCC5CC95CC75CC85F
:1004A0005C010001000100010001000100010001E8
:1004B0000001000100010001000100010001000134
:1004C000000100010001001E0F0500047F3F1F64B2
:1004D0003214643214783C1E1E140A05FD377A5813
:1004E0005A000004E6D6B4460200210116000000BE
:1004F000742FE5A3E0011400AE5D003D8889C65469
:1005000036C3174FE4E33D72CAAE3740A66AB40D56
:10051000EB7B85A5CDDF28C44AC698E281153BF761
:100520000CF6BFB59345A0AC34142ACB5E1D5133F5
:100530000B82D6FF8063E2B36F12C012249420F5C1
:10054000CFB954B51BA10423AD7611D4B37C654D4E
:10055000C9A99A8A41C5271E8EE3642A901DE05BD3
:10056000CA8A5954203EEBB34A0B4A298E5BB6DD4A
:10057000043F4001AA1B8A63A1FE8B951F7056FFA2
:10058000291155240153D87F10230E3C12563D24C7
:10059000086C2C9CD73EF8B38F36FB370C809281C9
:1005A00002452B91EEE02F6B00000000C516E28B98
:1005B000B1A5D5670001CA019502000047055CC7D7
:1005C000B1C467FB020000000004595A0902BF00D1
:1005D000050100A0FA09040000010301010009213E
:1005E000110100012240000705810308000A0904E7
:1005F0000100020300000009211101000122220074
:1006000007058203200001070503032000010904F8
:100610000200010300000009211101000122BC00B9
:100620000705840320000A080B03020101000009EA
:100630000403000001010000092401000109000178
:100640000409040400020103000007240100014121
:10065000000624020101000624020202000924030C
:100660000103010201000924030204010101000940
:100670000506024000050000052501010109058568
:1006800002400005000005250101031201100100D0
:10069000000008EDFE01170100010203011C0376B2
:1006A00000690061006C003A0066003600340063A7
:1006B00000320062003300630000001C034E006F34
:1006C000006F0064006C0065002000500061006451
:1006D0000020007600310000001E03540068006511
:1006E0000020004D006100640020004E006F006F8C
:1006F0000064006C0065000000040309040011247C
:100700001FBECFEFDAE0DEBFCDBF04B603FE27C0C9
:100710008091E4039091E503A091E603B091E70393
:100720008730904BA740B04BD1F41092E403109265
:10073000E5031092E6031092E70314BE84B7877FA7
:1007400084BF0FB6F894A89580916000886180936B
:100750006000109260000FBEE0E0F8E3099523E02E
:10076000A4ECB1E001C01D92A43EB207E1F711E094
:10077000A0E0B1E0EAEFF4E602C005900D92A43CDF
:10078000B107D9F70E9431280C942E320C94000046
:10079000CF92DF92EF92FF920F931F93CF93DF934D
:1007A00000D00F92CDB7DEB77C01162FD42EC22E0B
:1007B000809115038430B9F5E0910A03F0910B03A1
:1007C000309709F440C0C701019763E070E00E94D0
:1007D000BD30CB01880F991F860F971F19834A835D
:1007E000CB824E2D481B9E012F5F3F4FBC0180EFF7
:1007F00092E00995E0910E03F0910F03309739F0E4
:100800000C2D2D2D412FB70180EF92E009950F900F
:100810000F900F90DF91CF911F910F91FF90EF906C
:10082000DF90CF90089582E0E816F10409F45AC0F1
:1008300083E0E816F104A9F081E0E816F10409F478
:1008400084C0F12CE12CE0910C03F0910D03309762
:1008500089F20C2D2D2D412FB70180EF92E00995E3
:10086000C9CF862F807F803A11F188F48038D1F08B
:10087000E091F402F091F502803929F7309719F3ED
:10088000123F49F12C2D4D2D612F6F7027C0803EF6
:1008900099F0803FB1F0E091F202F091F302803BD9
:1008A00091F6ECCFE091F602F091F702E7CFE091FC
:1008B000F802F091F902E2CFE091FA02F091FB0226
:1008C000DDCF623F09F0BFCFE091FC02F091FD0265
:1008D000309709F4B8CF2C2D4D2D62EF80EF92E0C8
:1008E000099588CF862F807F803DB9F0803FD1F079
:1008F000E091FE02F091FF02803C09F0A4CF309716
:1009000009F4A1CF812F8D7F4D2D612F6F70813F15
:10091000C9F080EF92E009956DCFE0910003F0916E
:100920000103EDCFE0910203F0910303633F39F03F
:10093000613F09F088CFE0910403F09105033097FF
:1009400009F481CF4D2D612FE4CFE0910603F091A2
:100950000703683F38F4663F09F075CFE09108035C
:10096000F0910903309709F46ECF612F80EF92E088
:10097000099540CFE8EDF0E080818E7F8083109272
:10098000E2001092DA001092E100A0EEB0E08C914B
:1009900081608C9380818F77808319BCA7EDB0E054
:1009A0008C918E7F8C9380818F7E80831092C10288
:1009B00008952091E4003091E50095E6A901209189
:1009C000EC00822F817020FF06C08091E80080FF3C
:1009D00006C080E008952091E80022FD1AC08091B1
:1009E000E602882389F0853089F08091EB0085FD4F
:1009F0000FC02091E4003091E50042175307F9F24F
:100A00009150E1F684E0089582E0089583E008952E
:100A100081E00895EF92FF920F931F93CF937C0193
:100A20008B010E94D904C82F811117C08091E80062
:100A300085FD0BC08091E8008E778093E8000E94CE
:100A4000D904882399F3C82F08C0F70181917F0149
:100A50008093F1000150110949F78C2FCF911F911C
:100A60000F91FF90EF900895EF92FF920F931F93D5
:100A7000CF937C018B010E94D904C82F811117C02C
:100A80008091E80085FD0BC08091E8008B77809312
:100A9000E8000E94D904882399F3C82F08C08091E8
:100AA000F100F70181937F010150110949F78C2F63
:100AB000CF911F910F91FF90EF9008958091E802E0
:100AC00087FF13C08091E80082FF06C08091E80094
:100AD0008B778093E80004C08091E6028111F2CF09
:100AE00008958091E6028823D9F38091E80080FF81
:100AF000F8CF8091E8008E77ECCF982F9093E900A3
:100B0000242F762F50E0891731F07091EC0020915E
:100B1000ED005091F00021FD07C09F5F973071F705
:100B20008093E90081E008953091EB003E7F30939F
:100B3000EB003091ED003D7F3093ED003091EB0004
:100B400031603093EB007093EC002093ED005093F4
:100B5000F0002091EE0027FDE0CF80E00895CF92D5
:100B6000DF92EF92FF920F931F93CF93DF93C8ED25
:100B7000D0E088818F7E8883E7EDF0E0808181601E
:100B8000808384E082BF81E08093C10288818E7F70
:100B9000888302EE10E0F80110821092DA0081EEF4
:100BA000C82ED12CF601108288818F7788838881A6
:100BB0008068888388818F7D888319BC1092E602C3
:100BC0001092E7021092E5021092E40290EEE92EF4
:100BD000F12CF70180818B7F8083888181608883FD
:100BE00042E060E080E00E947D05F60180818E7F1A
:100BF0008083F80180818160808380818860808328
:100C0000F70180818E7F8083888180618883DF9176
:100C1000CF911F910F91FF90EF90DF90CF900895AB
:100C2000FC018091EE029091EF0286179707A0F0E9
:100C30006115710529F49091E8009E779093E80082
:100C400090E06115710551F4911108C08091E800A0
:100C500082FF34C080E00895BC01F2CF8091E602AB
:100C60008823C1F18530C1F18091E80083FD30C057
:100C70008091E80082FDEACF8091E80080FFE1CF1B
:100C80008091F3002091F200382F6115710519F061
:100C90002830310558F091E02830310509F090E016
:100CA0002091E8002E772093E800CBCF81918093AC
:100CB000F100615071092F5F3F4FE7CF8091E6024D
:100CC000882341F0853041F08091E80083FFBECF5A
:100CD00081E0089582E0089583E00895089580E01A
:100CE0000895089508958091C3020895982F907FE4
:100CF000903BE9F040F49039D1F0903AC1F090384F
:100D0000B1F080E00895903D19F020F4903CC9F7CF
:100D100082E00895903E59F0903F99F7815F8F30BF
:100D200080F7E82FF0E0E157FE4F8081089583E0DF
:100D30000895DF92EF92FF920F931F93CF93DF936B
:100D400000D000D0CDB7DEB77B01142FD22E4A835E
:100D50002B830C83842F0E947606811141C082E090
:100D6000E816F104C1F183E0E816F10439F0EA94E1
:100D7000EF2829F5173F29F485E004C087E0073FF5
:100D800009F084E089838091E6028430C1F4809187
:100D900015018F708093E90050E040E064E070E05E
:100DA000CE0101960E940A05811109C08091E800D8
:100DB00085FD05C08091E8008E778093E8000F9054
:100DC0000F900F900F90DF91CF911F910F91FF9097
:100DD000EF90DF90089587EFD812D3CF86E0D2CF7F
:100DE00012951F701983CFCFFF920F931F93CF934C
:100DF000DF9300D000D000D00F92CDB7DEB78C01CA
:100E000008511F4F8091E602843009F06CC0809138
:100E10001A018F708093E9008091E80082FF63C01F
:100E20008091E80085FF5FC050E040E064E070E042
:100E3000CE0101960E9434058091E80085FD05C031
:100E40008091E8008B778093E800FA808F2D0E94D4
:100E50007606282FFD828B818E838C818F832111D2
:100E60000AC08981843039F1873029F1863029F12F
:100E700021E0853039F630E0E5E0F0E0EC0FFD1FD1
:100E8000E30FF11DF0804FB7F894D8011196EC9163
:100E90001197F0E0CF01019612966C9170E00E94DC
:100EA000D130D8015C915817190649F44FBF3F5F04
:100EB000321710F3A7CF23E0DECF22E0DCCF13966A
:100EC0008D919C911497E80FF91FF08211968C91E7
:100ED000119790E0019612966C9170E00E94D130CB
:100EE000F8018183E3CF27960FB6F894DEBF0FBEDB
:100EF000CDBFDF91CF911F910F91FF9008959C017D
:100F00004FB7F8948091BB029091BC02A091BD02B2
:100F1000B091BE024FBF821B930B08952FB7F89478
:100F20008091BB029091BC02A091BD02B091BE0223
:100F30002FBF089520912A012223C9F020918D020C
:100F400027FF15C0E62FE695E695E695EE31D8F435
:100F5000E80FF92FF11D677021E030E001C0220F8A
:100F60006A95EAF720958281282322830895FC015F
:100F7000329608962191621303C0DF0111971C92EB
:100F8000E817F907B9F7089520912A012223C1F043
:100F900020918D0227FF14C0E62FE695E695E69591
:100FA000EE31F8F4E80FF92FF11D677021E030E021
:100FB00001C0220F6A95EAF78281822B828308950D
:100FC000FC0132962FEF30E04191641751F02F3F32
:100FD00019F4411101C0232F3F5F3630A9F72F3F8D
:100FE00009F40895820F911D27FD9A95FC016283F3
:100FF000089580915C02811110925C0208958091A5
:101000005B0290915A02892B90915902892B80930F
:10101000C60190915C029923A1F0892B8093C601AF
:1010200080912A01882341F180918D0287FF24C09D
:101030008EE1E8ECF1E090E0815000F591110E9422
:10104000F907E0919002F09191023097E1F08091E0
:101050002A01882359F080918D0287FF07C0809173
:10106000C6018093C70185E08093C6010280F381A9
:10107000E02D86EC91E0099486E0DBCF21912223DC
:10108000D9F29F5FD9CF0895E92FEE0F9E0F890FF8
:10109000982F977086958695869525E0829FF0011A
:1010A0001124E25BFD4F50E040E080E0219130E010
:1010B000092E02C0369527950A94E2F7217033274E
:1010C000042E01C0220F0A94EAF7822B4F5F5F4F74
:1010D0004530510559F70895E92FEE0F9E0F890FFE
:1010E000982F977041E001C0440F9A95EAF78695D2
:1010F0008695869595E0899FF0011124E25BFD4F6E
:1011000030E020E070E05191DF011197CB01022E19
:1011100002C0969587950A94E2F78170819585279C
:10112000842385278C932F5F3F4F2530310559F756
:10113000089580914D0290911C02981301C008956A
:101140008F5F8770FACF882341F0809590915A0283
:10115000892380935A020C94FF070895882339F05D
:1011600090915A02982B90935A020C94FF0708957D
:10117000882341F0809590915B02892380935B02E4
:101180000C94FF070895882339F090915B02982B07
:1011900090935B020C94FF07089520911302309105
:1011A00014022817390771F09093140280931302E8
:1011B000E0919002F0919102309721F00084F18546
:1011C000E02D099408952091110230911202281700
:1011D000390771F09093120280931102E09190020E
:1011E000F0919102309721F00680F781E02D09946B
:1011F0000895E0919002F0919102309721F00190D2
:10120000F081E02D099480E00895FA01811101C078
:10121000FB0109948091B602982F9E7F29F481707A
:1012200082608093B60208958635E8F38170846504
:10123000F8CFAF92BF92DF92EF92FF920F931F937E
:10124000CF93DF93082F162FE901E42FF0E0E65843
:10125000FD4F611110C0E4915E2F4E2F4983E8834A
:101260005A83DF91CF911F910F91FF90EF90DF9004
:10127000BF90AF900895E62EF12C4491D42EE42F28
:10128000F0E026E0829FC00111242FEF30E0B90189
:101290000E94BD30802F90E0880F991F55E5569F22
:1012A000D001579FB00D11248A1B9B0B982F990FCB
:1012B000890F5901AE18BF08AE9ED001AF9EB00D88
:1012C000BE9EB00D11245B2F189F80011124012FA9
:1012D00011275901A01AB10AAE9E8001AF9E100DD0
:1012E000BE9E100D11245901A81AB108AE9CC00170
:1012F000AF9C900DBE9C900D1124892F9927281B1F
:10130000390B2E9FC0012F9F900D3E9F900D1124F1
:10131000E92F62307105A1F050F46115710509F4EF
:101320009DCF6130710581F0EB2F512F97CF643045
:10133000710569F080F06630710509F48FCFF4CF44
:10134000E42F4B2F592F8ACFE42F412F87CFEB2F3C
:10135000542F492F83CF4B2F5D2DE12F7FCF0E943C
:101360008E079C019091A9028091AA02982B21F0EE
:101370003093A6022093A5029091AB028091AC021B
:10138000982B21F03093A3022093A202E0919002C7
:10139000F0919102309749F082E08093A702048097
:1013A000F581E02D87EA92E00994089590E080E0CD
:1013B0000E94E30890E080E00E94CD0810925A025B
:1013C000109259020E94FF0786E0E7EAF2E0DF018F
:1013D0001D928A95E9F71092A4021092A102109230
:1013E00015020C94AF096093E0037093E1038093BE
:1013F000E2039093E3030C94D6090F931F9360913B
:10140000E0037091E1038091E2039091E3038B018B
:101410009C0106701127222733270630110521056C
:10142000310529F468601F910F910C94F309677FCF
:10143000FACF0F931F9341E050E060E070E004C0EA
:10144000440F551F661F771F8A95D2F7CB01BA014B
:1014500060957095809590950091E0031091E1035F
:101460002091E2033091E3036023712382239323CD
:101470001F910F910C94F309909158028095892344
:1014800080935802282F277071F4282F082E000C03
:10149000330B9217130639F08595859585950E9433
:1014A000190A1092580208950F931F9341E050E0DB
:1014B00060E070E004C0440F551F661F771F8A95D7
:1014C000D2F78091E0039091E103A091E203B09103
:1014D000E3038A019B01082B192B2A2B3B2BC90103
:1014E000B8011F910F910C94F30960935D02709302
:1014F0005E0280935F02909360020C94D6099091F3
:10150000A902803F59F48091AA0287FF0DC0109272
:10151000AA0291110BC01092A40208C0813F81F46D
:101520008091AA0218169CF3992381F08091AB0256
:101530009091AC02892B09F064C01092A102089529
:10154000823F49F497FFF0CF1092A9028091AA023E
:101550008111ECCFE0CF833F19F41916ACF3E4CF3F
:101560002091AB02893F29F41216F4F61092AB02D7
:10157000DBCF8A3F19F427FFD7CFF8CF2091AC02F9
:101580008B3F29F427FFD0CF1092AC02CDCF8C3FF8
:1015900019F41216CCF3C8CF843F31F48091A8021D
:1015A0008E7F8093A802C0CF853F21F48091A8024E
:1015B0008D7FF7CF863F21F48091A8028B7FF1CFFA
:1015C000873F21F48091A802877FEBCF883F21F4E9
:1015D0008091A8028F7EE5CF8D3F31F48091150276
:1015E0008E7F80931502A0CF8E3F21F4809115024B
:1015F0008D7FF7CF8F3F09F097CF809115028B7FBA
:10160000F0CF08958823B1F19CEF980F913A38F408
:10161000682F86EC91E00E949A070C94FF0790E2F5
:10162000980F983088F4877021E030E0A90102C05B
:10163000440F551F8A95E2F7CA01809590915B028D
:10164000892380935B02E9CF9BE5980F933020F4C8
:1016500090E080E00C94E30898E5980F973120F42F
:1016600090E080E00C94CD08803F20F00E947F0A3B
:101670000C94AF0908958091150280FD16C081FD7C
:1016800016C082FD16C08091A1028823A1F0883285
:1016900080F428E0829FC001112468E270E00E947B
:1016A000D130862F672B39F0089582E0089584E0C9
:1016B000089588E0089581E008958091150280FDE5
:1016C00014C081FD14C082FD16C08091A40288233D
:1016D00081F0843180F422E3829FC001112464E10F
:1016E00070E00E94D130862F08958CE0089589E142
:1016F000089585E0089582E30895803F31F40E94C3
:101700005D0B81958093AA020895813F19F40E9490
:101710005D0BF8CF823F31F40E945D0B8195809381
:10172000A9020895833F19F40E945D0BF8CF893F09
:1017300029F40E943B0B8093AB0208958A3F21F469
:101740000E943B0B8195F7CF8B3F31F40E943B0BFE
:1017500081958093AC0208958C3F19F40E943B0B55
:10176000F8CF843F31F48091A80281608093A80271
:101770000895853F21F48091A8028260F7CF863FCB
:1017800021F48091A8028460F1CF873F21F48091F9
:10179000A8028860EBCF883F21F48091A802806185
:1017A000E5CF8D3F31F48091150281608093150261
:1017B00008958E3F21F4809115028260F7CF8F3F0C
:1017C000B9F7809115028460F1CFCF93C82F882399
:1017D00009F46FC08CEF8C0F813AC0F580912A011B
:1017E000882311F180918D0287FF1EC0EC2FE695B2
:1017F000E695E695F0E0EA53FE4F828190E04C2FAB
:10180000477021E030E002C0220F331F4A95E2F713
:1018100082239323892B91F06C2F86EC91E00E9418
:101820009A070E94FF070AC0E8ECF1E08EEC91E015
:101830002191C21789F38E179F07D1F76C2F86EC81
:1018400091E00E94C407CF910C94FF0780E28C0FB7
:10185000883068F4C77021E030E001C0220FCA95DB
:10186000EAF780915B02822B80935B02ECCFEBE581
:10187000EC0FE33040F4F0E0E25AFE4F808190E05C
:10188000CF910C94E308E8E5EC0FE73150F4F0E079
:10189000EE0FFF1FEF59FE4F80819181CF910C9485
:1018A000CD08C03F30F08C2F0E947D0BCF910C945F
:1018B000AF09CF910895F894E82FE295EF70F0E02A
:1018C00031A1282F2F7081E090E001C0880F2A9568
:1018D000EAF7982F9095932391A392A1892B82A345
:1018E0007894089590918D0292FF06C0282F287158
:1018F0002830F9F4877F846093FF06C0282F287171
:101900002831F1F4877E846120918E0220FF06C089
:10191000382F38713830D9F4877F816021FF06C0B5
:10192000282F28712831D1F4877E816194FD877E2C
:101930000895282F24712430F9F68B7F8860DCCF3E
:10194000282F2471243101F78B7E8861DDCF382F59
:101950003171313019F78E7F8860E0CF282F2171E7
:10196000213121F78E7E8861E1CFCF93DF939C01F7
:101970003A9521153F4168F5EC01CC27D170DC0187
:10198000AA27B270AC01442754709C0122273870FA
:1019900094FF11C080E1CD2B09F480E0AB2B09F05E
:1019A0008062452B09F08064232B09F08068FB01DD
:1019B000DF91CF91099481E0CD2B09F480E0AB2B2E
:1019C00009F08260452B09F08460232B81F3886045
:1019D000EECFDF91CF910895CF93DF93EC010E947A
:1019E000020BCE01805E9109089720F063EA78E04F
:1019F000209711F468EB78E0CE01DF91CF910C9441
:101A0000B50CCF93DF93EC01805E9109089720F02D
:101A10006EEA78E0209711F463EC78E0CE010E9442
:101A2000B50C8C2FDF91CF910C94E50BCF9384E014
:101A300090E00E948331C82F81E290E00E948331C0
:101A4000982F8C2FCF9108950F931F93CF93DF93EF
:101A5000843000F561111EC024E0829F80011124B2
:101A600050E0440F551F040F151F02591F4FC801A6
:101A70000E948331C82FD0E0DC2FCC27C80101960B
:101A80000E9483319E01282BC901DF91CF911F91C4
:101A90000F91089590E080E0F8CF0F931F93CF93BC
:101AA000DF93843030F5633020F5433010F5C42FD8
:101AB000D0E0CC0FDD1F26E0629FC00DD11D1124A8
:101AC00032E1839FC00DD11D1124CE0186960E9464
:101AD0008331082F10E0102F0027CE0187960E9437
:101AE00083319801282BC901DF91CF911F910F916C
:101AF000089590E080E0F8CF462F2091BF0230910A
:101B0000C002232B91F47E3F39F46E3F71F4809133
:101B10000F02909110020895843038F4733028F445
:101B2000633018F4672F0C944D0D90E080E0089519
:101B3000CF93DF930E947C0DEC0182389105A9F1CF
:101B4000D8F58133910509F496C048F5893291059D
:101B500009F48AC08A9709F495C0C11521E5D20716
:101B600008F0BCC0C11530E5D30708F014C1C83E69
:101B7000D10508F09CC0C03ED10560F5C83AD1053A
:101B800008F087C0C53AD10508F0FDC0C130D105C5
:101B900009F12097F9F0C430D105E0F440C0853355
:101BA000910509F45AC0C997C1F680918D028370DE
:101BB00089F0C0EED0E00EC0833E910599F170F43B
:101BC000803E910501F1823E910539F680918D02AA
:101BD00082FD21C0CE01DF91CF910895863E91050F
:101BE00061F1873E910571F1843E910509F0B5CF11
:101BF00080918E0281FFEECF80918D02C7EED0E002
:101C000084FD0DC0E7CF80918D0280FD12C19091BF
:101C10008E0290FFDFCFC3EED0E084FFDBCFD0E0B9
:101C2000C0E0D8CF80918D0282FD06C190918E02D6
:101C300090FDBFCF84FFCECFF2CF80918D0283FD88
:101C4000DDCFC8CF80918D0283FDF9C090918E02C7
:101C500091FFF0CFC4EED0E0BDCF80918D0285FF23
:101C6000B9CFC9E2D0E0B6CF80918D0285FFB2CF67
:101C7000C5E3D0E0AFCF80918D0286FFABCFCAE243
:101C8000D0E0A8CF80918D0286FFA4CFC1E3D0E041
:101C9000A1CFCF3BD10518F6C85AD0E0CC0FDD1F3D
:101CA000CF59DE4F0990D881C02DD46493CFC11590
:101CB00040E2D40758F4C11581E0D80708F08ACF74
:101CC000C03FD10508F4ABCFD06584CFC11590E4F7
:101CD000D90708F4A4CFDF70D06A7CCFC11525E501
:101CE000D20700F5C11534E5D30708F08AC0C11545
:101CF00043E5D40708F071C0C11582E5D80708F4A0
:101D000067C0CE018370992721E030E002C0220F26
:101D1000331F8A95E2F7C695C69580E2C89FE00119
:101D2000112452C0C11599E5D907A8F4C11528E5B9
:101D3000D20708F06BC0C11536E5D30708F06FCFA6
:101D40008C2F0E94720CC82FD0E0DC2FCC27CC2720
:101D5000DF71D0623FCFC1154AE5D40708F45BC0FC
:101D6000CE0190568115904208F059CF8D2F8F717A
:101D70000E94720C90E0982F882788279F719C0101
:101D80002C2BE901E6CFC55AD0E0C25ADE4FC881FC
:101D9000D0E0D0641FCFCE01E4E096958795EA9518
:101DA000E1F783702C2F26952695237040E2249F1F
:101DB00090011124382B8C2F8370C1E0D0E002C039
:101DC000CC0FDD1F8A95E2F7C22BD32BDC6802CF44
:101DD000DC2FCC27C16FD06AFDCECE01837099274E
:101DE00021E030E002C0220F331F8A95E2F7C6954A
:101DF000C69590E2C99FE0011124C22BD32BDA686B
:101E0000E9CEDC2FCC27C46FD06AE4CEDC2FCC2700
:101E1000C06FD06ADFCE8C2F8F700E94720C34E0BE
:101E2000D695C7953A95E1F7CF709C2FEC01D06914
:101E3000D1CEC9E3D0E0CECEC2EED0E0CBCEC6EE5E
:101E4000D0E0C8CEBF92CF92DF92EF92FF920F9375
:101E50001F93CF93DF938C01C090E003D090E103F8
:101E6000E090E203F090E30380915D0290915E02C6
:101E7000A0915F02B0916002C82AD92AEA2AFB2AFF
:101E8000CFE1D0E0BC2ED701C6010C2E04C0B69520
:101E9000A795979587950A94D2F780FD0EC0219754
:101EA00088F7B12C8B2DDF91CF911F910F91FF906F
:101EB000EF90DF90CF90BF900895B8018C2F0E94D3
:101EC000980D019761F3EECFCF93DF93EC010E9461
:101ED000220FBE01DF91CF910C94980D0E94640FE8
:101EE000292F2F7092959F7092509E3078F4E92F91
:101EF000F0E0E05DFD4C0C94E530803F19F020F4FB
:101F0000883E20F481E00895843FE1F380E0089565
:101F1000883EC0F3813FD1F7F5CF822F8695869515
:101F200086950895CF93DF93CEE7D0E060E0CE01B1
:101F30000E9497312196C11584E0D807B9F7DF9147
:101F4000CF9108950F931F93CF93DF93890184302E
:101F500028F5611123C0423008F521153C4531F4C4
:101F60002091120130911301232BC1F094E0899F3D
:101F7000E001112450E0440F551FC40FD51FC25972
:101F8000DF4F612FCE010E949731602FCE01019665
:101F9000DF91CF911F910F910C949731DF91CF91E9
:101FA0001F910F9108950F931F93CF93DF93890192
:101FB000843048F5633038F5433028F521153C4529
:101FC00031F42091120130911301232BE1F0C42F41
:101FD000D0E0CC0FDD1F96E0699FC00DD11D11240C
:101FE00092E1899FC00DD11D1124612FCE018696EB
:101FF0000E949731602FCE018796DF91CF911F917C
:102000000F910C949731DF91CF911F910F9108950B
:102010008F929F92AF92BF92CF92DF92EF92FF92F8
:102020001F93CF93DF93809012019090130181E072
:1020300090E090931301809312018FE7C82E84E003
:10204000D82EC0E07601D0E014C0F501259134917E
:10205000412F6D2F8C2F0E94D30F82E0A80EB11C50
:102060001F5F133091F786E0E80EF11CDF5FD3307D
:1020700019F0570110E0E9CF21E030E040E060E0E6
:102080008C2F0E94A20F21E030E041E060E08C2F15
:102090000E94A20FCF5F82E1C80ED11CC43091F61E
:1020A0009092130180921201DF91CF911F91FF90C6
:1020B000EF90DF90CF90BF90AF909F908F9008955A
:1020C000CF93DF9300D00F92CDB7DEB79091E602A9
:1020D000943011F589837B836A839093E9008FEFB5
:1020E0009091E800815095FD06C095ED9A95F1F725
:1020F00000008111F5CF8091E80085FF0DC050E010
:1021000040E063E070E0CE0101960E940A058091F4
:10211000E8008E778093E8000F900F900F90DF918A
:10212000CF910895BC0184E00C946010BC0183E061
:102130000C9460109C0184E08093E9009FEF8091F3
:10214000E800915085FD06C085ED8A95F1F7000005
:102150009111F5CF8091E80085FF0CC050E040E080
:1021600066E070E0C9010E940A058091E8008E7760
:102170008093E8000895CF93DF93EC0180912A01CA
:102180008823B1F180918D0287FF32C060E284E044
:102190008093E9008FEF9091E800815095FD06C093
:1021A00095ED9A95F1F700008111F5CF8091E80047
:1021B00085FF1BC080912A0170E050E040E0811152
:1021C00004C050E040E068E070E0CE010E940A05E3
:1021D0008091E8008E778093E80080E2FE01A4EC15
:1021E000B2E001900D928A95E1F7DF91CF910895C9
:1021F00068E081E0CDCF81E08093E00080E28093D1
:10220000D8001092C9008FE19EE40197F1F700C059
:10221000000087E090EBDC018093E4039093E503FA
:10222000A093E603B093E70388E19CE00FB6F8942F
:10223000A895809360000FBE90936000FFCF1F931E
:10224000CF93DF93182FD0E0C0E0893311F4C0E5BD
:10225000D0E0812F0E94E50B209731F4812FDF9190
:10226000CF911F910C94020B8FE99FE00197F1F73A
:1022700000C000002197F0CF0F931F93CF93DF93FF
:10228000C62FD42F022FFC0182818823A1F06093F6
:10229000DF030E948E079093DE038093DD03C770F7
:1022A00081E001C0880FCA95EAF7DF91CF911F91B5
:1022B0000F910C94C3088091DF03681335C080919F
:1022C000DD039091DE030E947F07883C910560F555
:1022D00010E21D0FCD17B9F080E28C0F883040F46A
:1022E000C77081E001C0880FCA95EAF70E94B8085C
:1022F000183048F481E09D2F977001C0880F9A959F
:10230000EAF70E94C308802F0E941F11183098F42A
:10231000D77081E001C0880FDA95EAF7DF91CF919D
:102320001F910F910C94B808C77081E001C0880F0D
:10233000CA95EAF7F3CFDF91CF911F910F910895DE
:102340008091B60280FD0AC0EFEEF1E011821082AA
:102350001282339651E0EB3FF507C1F7279A35B16A
:102360003F7725B120684FB7F8948FEE91E0FC01DC
:102370005191CF0168E025B9000000C057FF35B981
:10238000550F000000C000C000C035B900C06A95FC
:1023900091F7F1E08B3F9F0751F74FBF8FE594E036
:1023A0000197F1F700C000000895EF92FF921F938C
:1023B000CF93DF93EC018FEEE82E81E0F82E10E052
:1023C0008C8197014091B9026091B802810F0E94FF
:1023D0001909115C83E0E80EF11C1C3F89F70E948B
:1023E000A0119A818C8190FF08C08F5F8C83DF9150
:1023F000CF911F91FF90EF9008958150F7CFCF922A
:10240000DF92EF92FF920F931F93CF93DF93FC0124
:102410008281DD24DA9480FD02C0DD24D394CFEEE6
:10242000D1E010E000E0198218821A8294E0E92ECF
:10243000F12CC12C8091EC018C0D8530CCF1837096
:10244000082E000C990B8017910791F48091B90226
:102450008E9DA0018F9D500D112455954795559542
:1024600047959E016091B8028091B7020E941909B8
:10247000CD0CF1E0EF1AF108E9F60F5F1F4F23963C
:102480000430110581F60E94A0118091EC0191E0C9
:10249000D91214C0811110C083E08093EC01DF9148
:1024A000CF911F910F91FF90EF90DF90CF90089503
:1024B00087FFC6CF8C5FC4CF8150EFCF90E00196ED
:1024C00083709927EACF0F931F93CF93DF93CFEEBB
:1024D000D1E0FE01118210821282339681E0EB3F3F
:1024E000F807C1F710E000E08091ED01082E000C24
:1024F000990B081719078CF180911001082E000C18
:10250000990B801791074CF19E014091B90260919F
:10251000B8028091B7020E9419090F5F1F4F2396DE
:102520000430110509F70E94A01180910F019091CC
:10253000ED01980F9093ED0120911001280F209349
:102540001001121614F493301CF0819580930F0142
:10255000DF91CF911F910F910895198218821A82ED
:10256000DCCF8F929F92AF92BF92CF92DF92EF9289
:10257000FF920F931F93CF93DF93EC014C81042FB5
:1025800010E09801D8010E941F329B01AC010E940B
:10259000EA314B015C01E0E2F0E0E01BF10BA5E564
:1025A000B0E0AC019B010E94EA316B017C019F010C
:1025B000DF010E94F2309B01AC010E94F5319B01CA
:1025C000AC01280D391D4A1D5B1DC701B6010E94D3
:1025D000FD31F22E822F90E039E23F15E0F143E029
:1025E000249F9001112435952795122F10959FEE69
:1025F000C92E91E0D92E00E085E5E82EEF18802F56
:102600008695C9F58E2D9601412F6091B8020E94E2
:1026100019090F5F53E0C50ED11C043081F70E94E9
:10262000A0119C8181E0992319F0903219F48FEF69
:102630008093110180911101890F8C83DF91CF91DB
:102640001F910F91FF90EF90DF90CF90BF90AF90D0
:102650009F908F90089525E530E0A901481B590B04
:10266000CA019A01220F331F280F391F37FFBBCF32
:102670002F5F3F4FB8CF8F2DC6CFEF92FF920F93B2
:102680001F93CF93DF938C01CFEED1E0F12CE12C9F
:10269000F80194816091B8028091B702F2E0EF16E0
:1026A000F104FCF49923F9F09E014091B9020E94D3
:1026B00019092FEFE21AF20A239684E0E816F104D2
:1026C00039F70E94A011F801848190E00196817091
:1026D00099278483DF91CF911F910F91FF90EF9005
:1026E0000895992309F39E0140E0E1CF9091B6024D
:1026F00090FF0CC0EFEEF1E081836083428333965C
:1027000091E0EB3FF907C1F70C94A01108950F93E6
:102710001F93CF93DF9300D00F92CDB7DEB78C011C
:102720008091EE0181110AC09E012F5F3F4F4FEF54
:102730006FEF0E9419098A818093EE01F80164818C
:10274000613069F08091EE0140E0662361F040E085
:10275000623011F44091EE0180E060E004C06091CD
:10276000EE0140E080E00E947613F801848190E061
:10277000019663E070E00E94D13084830F900F9047
:102780000F90DF91CF911F910F910895CF93DF9319
:1027900000D00F92CDB7DEB79091B60290FF0AC07D
:1027A0009E012F5F3F4F0E9419094B8169818A81E9
:1027B0000E9476130F900F900F90DF91CF910895A4
:1027C000CF93DF93EC01EC81F0E0E158FC4F4491B2
:1027D000E6EBF2E0628181810E94C6138C818F5FFB
:1027E0008C83DF91CF910895CF93DF93EC01E6EBDB
:1027F000F2E0438162818C810E94C6138C818F5FDD
:102800008C83DF91CF9108958F929F92AF92BF9268
:10281000CF92DF92EF92FF920F931F93CF93DF93AC
:102820000EE911E0D0E0C0E0B12CCC24C394D12C4F
:102830002DE8E22E22E0F22ED8018D918D01F89440
:10284000E82FE295EF70F0E021A18F70A60102C0A1
:10285000440F551F8A95E2F7CA01922F982B91A336
:1028600092A18095892382A3789400C096010C2EB2
:1028700001C0220F0A94EAF7522F2095EAE8F2E00D
:1028800081EA882E81E0982EA12C4191D4013D91BE
:102890004D01832F82958F7090E0DC0190968C9192
:1028A00090E03F7002C0959587953A95E2F780FDDC
:1028B00040C0852F842B481739F0BF016150710942
:1028C000DB018C93AA24A394EE16FF06F1F6F8011F
:1028D000319780810E945B0CC23019F0E0EAEA95E2
:1028E000F1F7BA282196C330D10509F0A5CFBB2056
:1028F00019F181E08093EB010E948E079093EA0129
:102900008093E9018091E9019091EA010E947F079B
:102910000697B0F080918A028093950280918B0295
:102920008093960280918C02809397021092EB0123
:1029300007C0822F8423BFCF8091EB018111E2CFAA
:102940008B2DDF91CF911F910F91FF90EF90DF9032
:10295000CF90BF90AF909F908F900895AF92BF920D
:10296000CF92DF92EF92FF920F931F93CF93DF935B
:10297000EC018AE0A82E2881222309F48CC02130A2
:10298000C9F599818A81913021F422960E941F1104
:1029900005C0923029F422960E94E50B2196EBCFD8
:1029A000933021F422960E94020BF8CF943011F05C
:1029B0002196F4CF229630E020E0AE014F5F5F4FCA
:1029C0008053990B8A30910550F02150310930F332
:1029D0008FE99FE00197F1F700C00000F6CFA29EBB
:1029E000B001A39E700D11249C01260F371F898111
:1029F000EA01E3CFE22FF0E0E650FE4FB490822FE1
:102A000086958695869590E0FC01E651FE4FE49010
:102A10002770F12C022E02C0F594E7940A94E2F795
:102A200031E0E322FF24FC01E652FE4FC490D12C9A
:102A3000022E02C0D594C7940A94E2F731E0C32273
:102A4000DD24FC01E653FE4F049110E002C0159511
:102A500007952A95E2F701701127E114F10419F0A6
:102A600081EE0E94E50BC114D10419F086EE0E949C
:102A7000E50B8B2D0E941F11CD2819F086EE0E94C8
:102A8000020BEF2819F081EE0E94020B012B09F4D2
:102A900085CF8CE27BCFDF91CF911F910F91FF907B
:102AA000EF90DF90CF90BF90AF90089510925B02AF
:102AB00080912A01E8ECF1E0882359F080918D02A1
:102AC00087FF07C08EE1DF011D928A95E9F70C941C
:102AD000D60986E0F8CF1F93CF93DF93CDB7DEB74B
:102AE000AA970FB6F894DEBF0FBECDBF88EE92E076
:102AF0002091F100DC012D93CD01B2E0803F9B07D6
:102B0000B9F78091E902833009F471C0B8F48130DB
:102B100009F448C0823009F4B2C08091E80083FF14
:102B20003AC18091E8029091E9029A3008F033C1ED
:102B3000E92FF0E0E25CFD4C0C94E5308A3009F4BA
:102B40008DC08B3009F470C0893039F78091E8026C
:102B5000813219F78091EC029091ED02009711F00B
:102B60000297D9F68091E800877F8093E8008091F2
:102B7000E80082FF37C09091F3008091F200029745
:102B800029F48091F1008B7F813021F48091F10054
:102B90008093C3028091E8008B778093E8000E94C5
:102BA0005E05BBCF8091E802813A09F0B6CF8091F3
:102BB000E800877F8093E8008091EC029091ED021D
:102BC000892B61F460E284EC92E070E00E941006D0
:102BD0008091E8008B778093E8009FCF60E090E0E1
:102BE00080E0F3CF8091E6028111C1CF96CF809132
:102BF000E802813A09F091CF8091EC029091ED02C8
:102C0000892B09F08ACF8091E800877F8093E800C4
:102C10008091E80080FFFCCF80912A018093F10031
:102C20008091E8008E77B9CF8091E802813209F077
:102C300074CF8091EC029091ED02892B09F06DCF59
:102C40008091E800877F8093E8000E945E05809174
:102C5000EA0280932A010E9456155FCF8091E80214
:102C6000813209F05ACF8091E800877F8093E80095
:102C70000E945E058091EB028093C2024ECF80914C
:102C8000E802813A09F049CF8091E800877F80937C
:102C9000E8008091E80080FFFCCF8091C202BECFA7
:102CA000803899F0823809F076C08091EC028F70FC
:102CB000873008F070C08093E9008091EB0085FBBD
:102CC000882780F91092E90006C08091E402909173
:102CD000E502911182609091E800977F9093E8005F
:102CE0008093F1001092F1008091E8008E77CAC1C4
:102CF000882309F4B7C1823009F04DC08091EA02FF
:102D00008111BBC18091EC028F702FEF280F26300C
:102D100008F041C08093E9002091EB0020FFADC195
:102D2000933031F48091EB0080628093EB00A5C179
:102D30009091EB0090619093EB0021E030E001C0B6
:102D4000220F8A95EAF72093EA001092EA00809118
:102D5000EB008860EACF81111EC01091EA021F7754
:102D60008091E3008078812B8093E3008091E800DC
:102D7000877F8093E8000E945E058091E80080FFD5
:102D8000FCCF8091E30080688093E30082E0111122
:102D900083E08093E6028091E80083FF0AC080917F
:102DA000E800877F8093E8008091EB008062809349
:102DB000EB00AA960FB6F894DEBF0FBECDBFDF9131
:102DC000CF911F9108958058823028F72091EA0210
:102DD0003091EB022C3DE3E03E07A1F583E08A83CE
:102DE0008AE289834FB7F894DE01139620E03EE033
:102DF00051E2E32FF0E050935700E49120FF03C02D
:102E0000E295EF703F5FEF708E2F90E0EA30C0F0F8
:102E1000C7968D939D932F5F243159F74FBF8091B3
:102E2000E800877F8093E8006AE270E0CE010196B7
:102E30000E9410068091E8008B778093E800ABCF6A
:102E4000C096E7CF8091EC029091ED02432F552779
:102E50004330510509F44AC078F54130510509F471
:102E600085C08FEB90E0ECECF5E04230510509F0C5
:102E700092CF2091E800277F2093E8002091EE0276
:102E80003091EF028217930708F49C0140E021156E
:102E9000310509F070C041116EC08091E80082FDDB
:102EA000C9CF8091E602882329F2853019F28091FA
:102EB000E80083FFF2CFBECF4132510509F447C08D
:102EC0004232510509F067CF8330910508F063CF96
:102ED000FC01EE0FFF1FE954FE4F0190F081E02D41
:102EE0008C549E4FDC018C9190E01DC03327213023
:102EF0003105E9F02115310579F022303105F9F07D
:102F00002330310509F047CFEDE9F6E0E4918E2F4B
:102F100090E0EDE9F6E007C0E9EFF6E0E4918E2FEE
:102F200090E0E9EFF6E0009709F435CFA2CFE9EDA4
:102F3000F6E0E4918E2F90E0E9EDF6E0F4CFEBEBD4
:102F4000F6E0E4918E2F90E0EBEBF6E0ECCF8330EF
:102F5000910508F020CF880F991FFC01E354FE4F24
:102F60000190F081E02D89E090E083CF82E190E054
:102F7000EBE8F6E07ECF8091E602882309F45ACF91
:102F8000853009F457CF8091E80083FD53CF8091BD
:102F9000E80082FD82CF8091E80080FF78CF909199
:102FA000F3008091F2002115310519F08830910568
:102FB00050F041E0089709F040E08091E8008E77FA
:102FC0008093E80064CF44914093F1003196215002
:102FD00031090196E8CF803809F0DDCE8091E80014
:102FE000877F8093E8008091E7028093F1007CCE98
:102FF0008111D1CE1091EA02123008F0CCCE80912E
:10300000E800877F8093E8001093E7020E945E0546
:10301000112311F084E005C08091E30087FDFACF11
:1030200081E08093E60242E061EC81E00E947D0550
:1030300042E261EC84E00E947D0542E261EC82E0C4
:103040000E947D0542E260EC83E00E947D0542E340
:1030500061E885E00E947D0542E361E886E00E9428
:103060007D0599CE8091EA02813009F094CE81E00D
:10307000933009F080E08093E5021092E90080919E
:10308000E800877F8093E8000E945E0584CE4F921F
:103090005F926F927F928F929F92AF92BF92CF92E8
:1030A000DF92EF92FF920F931F93CF93DF93FC0178
:1030B0006280448081E08483EFE7F3E07490EEEF78
:1030C000F3E0E491CBEFD1E03FEEE32E31E0F32EDD
:1030D0004FE0C42E42E0D42E52E0A52EBB24B39480
:1030E00088248A94912C55245A94E7190E2F10E0C5
:1030F00082E0861530F08091B70288838091B80213
:103100008983411021C01B821A8297014A816981FB
:1031100088810E941909259683E0E80EF11CCC16DF
:10312000DD0631F7DF91CF911F910F91FF90EF9066
:10313000DF90CF90BF90AF909F908F907F906F90D7
:103140005F904F900C94A0118B818823E9F08150FF
:103150008B83859DC00111246C8170E00E94BD307D
:10316000FB01FF27E158FC4F8491E82FE719E59D0B
:10317000C0011124B8010E94BD308091B902689F3E
:10318000B00111247A83C1CF0E944D312091B90240
:10319000269521582A9DA0012B9D500D1124452FC5
:1031A0005527841795070CF0B0CF82E0861588F478
:1031B0000E944D31B4010E94D13088830E944D316C
:1031C0002091B8022695622F70E00E94D130280F1E
:1031D00029831A828091B902893C20F088EC8C8383
:1031E0008B8393CF8431D8F784E1F9CF6BEE7EEFF8
:1031F00090E080E00E94B53160E082E090E00E94C3
:10320000973160E083E090E00E94973110925D0278
:1032100010925E0210925F021092600260E084E001
:1032200090E00E94973160E081E290E00E94973147
:1032300060E085E090E00E94973160E086E090E0F9
:103240000E9497316FEF87E090E00E94973140E055
:1032500050E0BA0188E090E00E94A93160E08DE082
:1032600090E00E94973140E050E0BA0188E190E0A0
:103270000E94A93160E087E190E00E94973140E030
:1032800050E0BA018CE190E00E94A93160E080E258
:1032900090E00E94973140E050E0BA0188E190E070
:1032A0000E94A93140E050E0BA018FE090E00E9416
:1032B000A93140E050E0BA0183E190E00C94A931DB
:1032C000CF92DF92EF92FF926B017C010E940A097C
:1032D000B701A60188E090E0FF90EF90DF90CF90DB
:1032E0000C94A9317F928F929F92AF92BF92CF920E
:1032F000DF92EF92FF920F931F93CF93DF9300D053
:103300000F92CDB7DEB7182FD62E042FC22E909174
:10331000B60290FF29C0E92FE695AE2FB0E0AD5C74
:10332000BE4F8C918093B4029E7F923071F59E01C6
:103330002F5F3F4F812F0E9419094B8169818A813C
:103340000E9476131093B702D092B8020093B9028C
:10335000CC2051F06091B6027091B7028091B80212
:103360009091B9020E9460190F900F900F90DF9119
:10337000CF911F910F91FF90EF90DF90CF90BF9072
:10338000AF909F908F907F900895823019F40091B4
:10339000B902D8CF863019F41091B702D3CF893053
:1033A000D9F3893179F6E9512E2F2170722EE695E5
:1033B000F0E0E658FC4F8590949099243FEEE32E80
:1033C00031E0F32EB12CA12CC501969587959695E9
:1033D0008795711013C0810F9701402F6D2D0E94AA
:1033E0001909A80CB91C83E0E80EF11C2BEFE216BA
:1033F00021E0F20649F70E94A011A4CF212F281B3B
:10340000822FEACFE6EBF2E0438121E1421B08F490
:1034100040E021E0628181810C947219E6EBF2E0D8
:10342000438121E1420F08F44FEF21E06281818165
:103430000C947219E6EBF2E0628121E1621B08F460
:1034400060E021E0438181810C947219E6EBF2E0A7
:10345000628121E1620F08F46FEF21E043818181F5
:103460000C947219E6EBF2E0818121E043816281E4
:1034700088500C947219E6EBF2E0818121E04381DF
:103480006281885F0C9472198091BA02882319F0C6
:1034900081508093BA026091B6027091B702809118
:1034A000B8029091B9020C9460198091BA028330ED
:1034B00018F48F5F8093BA026091B6027091B702E0
:1034C0008091B8029091B9020C946019E6EBF2E099
:1034D00083E0808311828FEF8283838314826081F3
:1034E0007181828193810C9460196091B602669516
:1034F00070E04BE050E084E091E00E946631892B5F
:1035000019F481E08093B5020E948E07909399028E
:103510008093980208959091B60290FF36C0917002
:10352000811129C092609093B602662351F0609198
:10353000B6027091B7028091B8029091B9020E94D0
:1035400060196091B602669570E04BE050E084E04F
:1035500091E00E946631892BA9F01092B50281E0BA
:1035600080939B0220E04091B9026091B802809163
:10357000B7020C9472198B3210F09465D4CF880F77
:10358000982BD1CF0E94751AEACF08958091B60288
:103590008695815009F48AE261E00C948B1A80913F
:1035A000B60286958F5F8B3208F081E061E00C9463
:1035B0008B1A9091B60290FF07C09695981720F04D
:1035C000961710F40C94CF1A61E00C948B1A8F921A
:1035D0009F92AF92BF92CF92DF92EF92FF920F93A2
:1035E0001F93CF93DF9300D000D0CDB7DEB78C010F
:1035F0006B01FB01F280FF2009F462C382519F45F9
:10360000409708F088C28FEF93E00E9483312EEE3E
:10361000F22EF00E0EE710E0882371F0F12C7AC044
:103620000115F4E01F07D1F3C8010E948331811115
:1036300001C0FA940F5F1F4FF110F2CF19821A8266
:103640001B821C82BB24BA9478012FEFE21AF20A83
:10365000C8010E94833189831A828823F9F281305C
:1036600009F047C0680142E0C40ED11CC7010E94A6
:103670008331E82E8A83882389F2C6010E94833130
:10368000F82E8FEF8E0D833068F4680153E0C50E7D
:10369000D11CFB82FF2021F0CE0101960E94AE14C6
:1036A0008601D2CF84E0E812FBCF680194E0C90E16
:1036B000D11CC80103960E948331FF2009F4AECFCC
:1036C000882309F4ABCF8150990BB89E9001B99E25
:1036D000300D1124EF2DE150FF0BCF01820F931F0E
:1036E0000197F0F2EFE9FFE03197F1F700C0000039
:1036F000F7CFCE0101960E94AE146701D1CF81E0D1
:103700000E94540A0E94FD0989CF81E00E94190A93
:103710000E94FD098F2D0F900F900F900F90DF9159
:10372000CF911F910F91FF90EF90DF90CF90BF90BE
:10373000AF909F908F90089582E0E2CF82EE0E943A
:10374000E50B33C288E193E00E94010D88E193E02C
:103750000E94EC0C2AC282EE0E94E50B87E50E94D3
:103760001F1123C286EE0E941F1188E1F8CFE6E008
:10377000EE1AF10838C287E2E82EF12C34C282EE4C
:103780000E94020B4CC28CE20E941F118091E70143
:10379000882309F444C289E30E941F1140C288E2D1
:1037A000FBCF033F4CE5140739F1A0F4083D8CE54D
:1037B0001807F1F0093D9CE5190751F1073DECE5CB
:1037C0001E0709F030C226E241EE61EEC6010E94FA
:1037D0003C1124CF053FFCE51F07B1F088F0063F00
:1037E0004CE5140709F01FC227E245EE66EEEECF66
:1037F00027E245EE65EEEACF26E241EE60EEE6CF47
:1038000027E245EE64EEE2CF26E241EE62EEDECF45
:1038100028E241E0EFCF80918D02806106305CE5C7
:10382000150709F487C008F48CC080918D0280626E
:1038300081C080918D028D7F0C309CE5190709F4C1
:1038400079C070F480918D028C600A30FCE51F070E
:1038500009F470C008F481C080918D028E7F6AC027
:1038600080918D02877F0E304CE5140709F462C009
:1038700080918D028B7F0F301C4508F45BC08091D6
:103880008D028F7E57C00B3F8CE5180709F45DC091
:1038900030F50331ECE51E0709F46DC078F4013111
:1038A0002CE5120709F463C002311C4509F0F8C188
:1038B0000E94561580918D028F773CC005315CE5E2
:1038C000150709F460C008F474C080918E0281600D
:1038D0000A3F1C4509F0E4C180938E02E1C10F3F0D
:1038E000ECE51E0709F44BC088F480918E028D7FB1
:1038F0000D3F2CE5120781F380918E028E7F0E3FE3
:103900001C4550F380918E028360E6CF01305DE567
:10391000150709F457C008F442C060E002301D45A5
:1039200009F0BEC18EE090E00E949731B9C180914C
:103930008D02816080938D02B3C180918D0284607D
:10394000F9CF80918D028860F5CF80918E028260E0
:10395000C3CF80918D028064EDCF0E945615809177
:103960008D028068E7CF80918D028F7DE3CF8091BB
:103970008D028F7BDFCF80918D02837FDBCF8091A3
:103980008E028C7FA9CF80918D0282FB992790F9BE
:1039900021E0922790FB82F990FB83F9CBCF8091B5
:1039A0008E02982F909591708E7F892B90FB81F9D4
:1039B00093CF0E94561590918D02892F97FB87F91E
:1039C0008058B8CF61E0AECF80915B020631ECE564
:1039D0001E0709F090C18A7A91E009F490E0909373
:1039E000E80169E2811165E386EC91E00E94C40779
:1039F0000E94FF0713CE8091B60280FF1BC08E7F0E
:103A00008093B6026091B6027091B7028091B802BD
:103A10009091B9020E9460191092B502FFEF20E761
:103A200042E0F15020404040E1F700C000000E9419
:103A3000A011F4CD81608093B60261E086950E946A
:103A40008B1AECCD46EC5AE16FEC7AE10E94050945
:103A5000E5CD4FEC5AE166EC7AE1F8CF42E35AE16A
:103A60006BE37AE1F3CF4BE35AE162E37AE1EECF25
:103A70004AE15AE166E27AE1E9CF46E25AE16AE1D7
:103A80007AE1E4CF42E05AE16EE07AE1DFCF4EE046
:103A90005AE162E07AE1DACF44E45AE165E57AE19D
:103AA000D5CF45E55AE164E47AE1D0CF61E081E029
:103AB000C6CF65E082E00E94D91AB0CD68E086E00A
:103AC000FACF6EE089E0F7CF64E18FE0F4CF67E1F1
:103AD00085E1F1CF61E088E1B2CF62E289E1EBCF2D
:103AE00061E083E2ACCF01155CE5150739F00E3DCE
:103AF0001C4509F00FCE0E94F61890CD0E94561575
:103B00009FEFE4E3FCE09150E040F040E1F700C0BB
:103B100000000E94FB1000312FE5120709F4EFCDE1
:103B200001314FE5140709F407CEC801815E9C45B9
:103B3000059740F46FE1600F609386028CE090E09F
:103B40000E94973117FF2DCEF6018281882309F458
:103B50006AC0E0919002F091910280E0309721F0EC
:103B60000190F081E02D0995869581708093E701A1
:103B700090918602913029F4882319F089E30E94FC
:103B80001F1180915B028093E60110925B0280918D
:103B90008602813009F4D6CD882309F4CFCD823056
:103BA00009F4D9CD843009F4DDCD8FE39CE9019788
:103BB000F1F700C000004801E89497F89CE0A92EB6
:103BC000B12CC4010A2C02C0969587950A94E2F79D
:103BD0008F7009F4D0CDE82EF12C8A3008F0C7CDD3
:103BE0009DE1E90EF11CC7010E94010DC7010E9471
:103BF000EC0CF4E0AF1AB1082CEFA2162FEFB206CE
:103C000001F780918602813009F4BDCD882309F443
:103C1000B6CD823009F4B3CD843009F4C0CD8091A3
:103C2000E60180935B02F601F280FF2009F453C0A5
:103C30001092DF030230FCE51F0708F4C5CE063101
:103C40002CE5120730F0C8018A5F9C45099708F0FF
:103C5000BBCE0E94160D90938E0280938D02003190
:103C60004CE5140709F47FCE08F00DCE08308CE542
:103C7000180709F46ECE08F0DCCD0430ECE51E0721
:103C800009F45BCE08F0C7CD02302CE5120709F429
:103C90004ECE80918D02826003301C4509F44ACEDD
:103CA00060918D0210918E0284E090E00E94973125
:103CB000612F81E290E00E9497310E945615AECCB0
:103CC00080319F4509F421CD01318FE5180709F0B6
:103CD00039CF82E01BCDFF24F39406311C4509F057
:103CE00019CD8091E80169E2811165E386EC91E0EC
:103CF0000E949A077DCE8272F801E25CFC45E431B5
:103D0000F10508F0F0CEE85BFD4C0C94E5304F92E5
:103D10005F926F927F928F929F92AF92BF92CF925B
:103D2000DF92EF92FF920F931F93CF93DF9300D018
:103D300000D00F92CDB7DEB76C01FC018381948176
:103D4000892B31F08081918189238F3F09F0E3C273
:103D50000F900F900F900F900F90DF91CF911F91C8
:103D60000F91FF90EF90DF90CF90BF90AF909F901A
:103D70008F907F906F905F904F9008950E94220FD8
:103D8000182F682F89819A810E946C0869817A8135
:103D9000812F0E947C0DB6010E94E71A811120C07C
:103DA000809158028770A1F2F6018281882381F206
:103DB00082E00F900F900F900F900F90DF91CF91B6
:103DC0001F910F91FF90EF90DF90CF90BF90AF9039
:103DD0009F908F907F906F905F904F900C943C0AD3
:103DE000F6018281008111818823D9F1C8010E94E6
:103DF000220FF82E682FC8010E946C08B8018F2D81
:103E00000E94980D8C01882EF601F280A580A29464
:103E10003FE0A322809158028770A1F0EF2CFF2091
:103E200091F0812F807F803421F080E2800F8830F4
:103E300048F082E00E943C0A809158028770EE248C
:103E4000E3948111E12CB12EB2942FE0B222FBE079
:103E5000FB1508F440C0EB2DF0E0E45AFD4C0C9447
:103E6000E530C8010E944408F82EC8CF212F2F70DA
:103E7000A22E107F19F0A29490EFA922FF20C9F082
:103E8000AA2069F080E2800F883010F081100BC00A
:103E900080915B02A82AA0925B020E94FF07802FFC
:103EA0000E94E50B18C080915A02A82AA0925A02DB
:103EB000F4CF802F0E94020BAA2069F0A094005E2C
:103EC000083010F081103BC080915B02A822A092C4
:103ED0005B020E94FF07EB2DE850FF0B349710F4B4
:103EE0000E94F908EE2009F433CF8091580280FD3A
:103EF0002FCFF60112828595859585950E94540AEB
:103F0000C6010E94871E80915802859585958595EA
:103F10000F900F900F900F900F90DF91CF911F9106
:103F20000F91FF90EF90DF90CF90BF90AF909F9058
:103F30008F907F906F905F904F900C94190A8091B2
:103F40005A02A822A0925A02C4CF312F3F70932E5A
:103F5000107F103219F0929480EF9822882071F02F
:103F600081E0881661F1FF20B9F1AA2071F1F60114
:103F7000858180FF94CF8F70858327C0FF2091F0CB
:103F800090915C02892D892BA11003C00E94C30867
:103F9000A2CFE1E0AE12FACF891709F49CCF80934B
:103FA0005C0299CFA11006C00E94F907892D0E94DA
:103FB000B80891CFF1E0AF1609F48DCFF5CFFF200F
:103FC00031F025E02A1508F486CF892DDFCF34E0C3
:103FD0003A1508F480CFEACFAA2041F3F9E38F1213
:103FE00093C12FEF37EE83E0215030408040E1F75E
:103FF00000C0000089C1812F86958695837061F08D
:10400000813009F068CFC8019370F11002C090E0D0
:1040100080E00E94CD085FCFC8019370F11002C00C
:1040200090E080E00E94E30856CF802FFF2039F017
:104030000E947D0B0E94AF090E94AF094CCF0E94E5
:104040007F0AFACF812F837009F066C0F11043CF49
:10405000802F829586958770880F880F602F6F70EC
:10406000462E512C712C612C082E04C0440C551C7A
:10407000661C771C0A94D2F740E050E0BA0104FFB6
:104080000FC04FE050E060E070E004C0440F551FE7
:10409000661F771F8A95D2F7409550956095709569
:1040A000812F869586958370823019F1D8F400911E
:1040B0005D0210915E0220915F02309160028130BA
:1040C00069F04429552966297729CB01BA01602373
:1040D0007123822393230E94750AFDCE402A512A20
:1040E000622A732ACB01BA01642975298629972986
:1040F000F2CF442955296629772900915D02109154
:104100005E0220915F0230916002CB01BA0160270C
:10411000712782279327DFCF8695FF2011F0812F0B
:104120008170882309F4D7CE802F82958695877079
:10413000880F880F602F6F70462E512C712C612CC8
:10414000082E04C0440C551C661C771C0A94D2F738
:1041500040E050E0BA0104FF0FC04FE050E060E0E3
:1041600070E004C0440F551F661F771F8A95D2F771
:104170004095509560957095812F869586958370B2
:10418000823019F1D8F40091E0031091E1032091FD
:10419000E2033091E303813069F04429552966290F
:1041A0007729CB01BA0160237123822393230E94D4
:1041B000F30991CE402A512A622A732ACB01BA010F
:1041C0006429752986299729F2CF4429552966291A
:1041D00077290091E0031091E1032091E2033091EF
:1041E000E303CB01BA016027712782279327DFCF32
:1041F0001F70FF2029F0812F0E94540A802FC6CE05
:10420000802F0E94B808812F0E94190A64CE802F47
:1042100092EF891609F450C0981578F0E0EF8E16E9
:1042200019F1F1EF8F1609F43FC0FF2009F467C0C0
:10423000A11035CE812F8F713CC023EF821609F477
:1042400040C034EF8312F1CFFF2009F44DC01F713D
:10425000812F0E94540AE8E01E9FC0011124836050
:1042600080935802812F25C0FF20C9F084E08A1571
:1042700008F431CE1F7161E070E080E090E004C08E
:10428000660F771F881F991F1A95D2F70091E003D8
:104290001091E1032091E2033091E303A4CF95E074
:1042A0009A1508F418CEE6CF812F8F71FF2009F4FC
:1042B000ABCF0E94540A0FCE812F8F71FF20C9F31C
:1042C000A3CF60E070E0CB01FF2009F470CF1F7135
:1042D00061E070E080E090E004C0660F771F881F07
:1042E000991F1A95D2F763CF81E00E943C0AF1E052
:1042F000FA1508F0F0CD82E00E943C0AECCDAA202D
:1043000039F0893309F46DCE802F0E94020BE3CD82
:10431000812F8F7179CF85E0DE01119601900D928A
:104320008A95E1F7F601228189819A81211126CDB2
:104330000E944408182F2ACD1F93CF93DF938091BA
:104340001B02807FA9F480911802882389F0809154
:104350004D02D0911C026091160270911702A0913B
:104360001902B0911A02C62FC72316E0D81304C051
:10437000DF91CF911F91089590E0109711F0CF3FFA
:1043800019F401968770F2CF189F9001199F300D94
:104390001124F901E35EFD4F41814713F2CF4081C3
:1043A0004613EFCF42814111ECCF438154814A1B28
:1043B0005B0B483C510528F780911B028F70806190
:1043C00080931B02F901EE5DFD4F80818F7080614B
:1043D000808386E192E00E94871EDF91CF911F913A
:1043E0000C949908AF92BF92CF92DF92EF92FF9216
:1043F0000F931F93CF93DF93CDB7DEB761970FB6BF
:10440000F894DEBF0FBECDBF8C0185E0F801DE0160
:104410001D9601900D928A95E1F7F80180819181B6
:10442000E28026E1A22E22E0B22E60911902709164
:104430001A026115710509F43EC1309116024091CE
:104440001702232F24232F3F09F435C1C380D480C2
:10445000F0901802F601E61BF70BFF2009F4FBC0F1
:1044600020911B02522F507FE83CF10508F0BBC0A1
:10447000511178C0FE2C491321C038131FC0E11020
:104480001DC02F70206120931B02C5010E94871E52
:1044900080911B02F80185838F2D61960FB6F894E9
:1044A000DEBF0FBECDBFDF91CF911F910F91FF9067
:1044B000EF90DF90CF90BF90AF900895CD2829F076
:1044C000282F29232F3F09F014C120E0F22FF1708B
:1044D000DF2E20FF3DC020914D0240911C0256E08E
:1044E000241315C08D879E878D859E850E94640F3D
:1044F000292F22952F702230F8F0243020F59F705C
:10450000F9F0F8019581907FD9F4D12C1FC030E0EB
:10451000529FF001539FF00D1124E35EFD4F618126
:10452000961306C06081861303C06281E61210C034
:104530002F5F3F4F2770D4CF9F7011F0882329F34E
:10454000805E883010F3C8010E94871EFD2CA4CF26
:10455000EE2009F4A1CF80911B02816080931B02A1
:10456000F12C9ACF491312C0381310C0E1100EC0BD
:10457000F8012583C8010E94871E86E0F801A6E1A4
:10458000B2E001900D928A95E1F786CF8D879E87E4
:104590008D859E850E946E0F882309F1EE20F9F02B
:1045A00080911B02803270F0209116023091170228
:1045B00038872F831986DB86CA868C87CE010796BB
:1045C0000E94871E86E0F801A6E1B2E001900D92FC
:1045D0008A95E1F70E949C21FF24F3945DCFC801E6
:1045E0000E94871EF9CF51110AC086E192E00E9415
:1045F000871E86E0F50111928A95E9F7B1CF49133C
:104600000FC038130DC0E1100BC0F8012583C8019D
:104610000E94871E86E0F50111928A95E9F73CCF4A
:104620008D879E878D859E850E946E0F8823B9F2A7
:10463000EE20A9F280911B02803220F22091160216
:10464000309117023A8329831B82DD82CC828E83CC
:10465000CE010196B5CFE83CF105E0F6FE2CEE2048
:1046600009F4BDCF491316C0381314C080911B0242
:1046700080FD83CF982F907F09F47FCFF801858349
:10468000903F09F477CF982F907F905F8F70892BA0
:10469000858370CF8D879E878D859E850E946E0F46
:1046A000811190CF80911B02816080931B02C80111
:1046B0000E94871EF1CEEE2009F491CF8D879E8750
:1046C0008D859E850E946E0FF82E882309F487CF72
:1046D00086E0F801A6E1B2E001900D928A95E1F73B
:1046E00080911602909117020E94640F0E949C21F3
:1046F000D3CE21E02E25EACE1F93CF93DF93CDB703
:10470000DEB767970FB6F894DEBF0FBECDBF342F6C
:104710004B8B252F5C8B6D8B7E8B8F8B8E899F892E
:10472000611110925A021A8A198A3D872E876F8763
:10473000998B888B86E0FE013D96DE0117960190ED
:104740000D928A95E1F7CE0107960E94F221882307
:1047500089F016E080914D0290911C02891349C0A6
:1047600067960FB6F894DEBF0FBECDBFDF91CF9135
:104770001F91089586E0FE013796DE0111960190A3
:104780000D928A95E1F78A859B85892B11F38F819C
:10479000988589238F3FE9F220911C0230E0C901FE
:1047A00001968770992740914D024817190671F4B8
:1047B0000E94561510921C0210924D0286E0E6E10E
:1047C000F2E0DF011D928A95E9F7C3CF96E0929F50
:1047D000D001939FB00D1124A35EBD4FFE01319611
:1047E00001900D929A95E1F780931C020E9499081E
:1047F000B0CF819FC0011124835E9D4F0E94F221A2
:10480000882309F4ADCF80914D0290E00196877026
:10481000992780934D029ECF0F931F93CF93DF93E1
:1048200000D000D000D0CDB7DEB78C01909310023D
:1048300080930F021B821C821D821E828EEF898351
:104840008A8381E08B830E948E0781609D838C83A5
:10485000011580E2180708F5C8010E94010D8FE3D9
:104860009CE90197F1F700C000000E948E0781606B
:104870009D838C831B82011590E21907A8F4C8015F
:104880000E94EC0C26960FB6F894DEBF0FBECDBF8B
:10489000DF91CF911F910F910895BE016F5F7F4F00
:1048A000C8010E94E71ADBCFBE016F5F7F4FC801CE
:1048B0000E94E71AE7CFCF92DF92EF92FF920F9319
:1048C0001F93CF93DF93182F062FC090E003D09053
:1048D000E103E090E203F090E30380915D029091A8
:1048E0005E02A0915F02B0916002C82AD92AEA2A2A
:1048F000FB2ACFE1D0E0D701C6010C2E04C0B6954B
:10490000A795979587950A94D2F780FF12C0402FFC
:10491000612F8C2F0E94240D8130910551F0DF9181
:10492000CF911F910F91FF90EF90DF90CF900C945B
:104930000C24219700F7402F612F80E00E94240D66
:10494000EECF7F928F929F92AF92BF92CF92DF92E3
:10495000EF92FF920F931F93CF93DF93CDB7DEB704
:10496000AF970FB6F894DEBF0FBECDBF962FBA013A
:104970002132310508F0AAC040EF49831A821B8218
:104980001C82790142E0E40EF11C0CE210E00E19E9
:104990001F09A1E0B0E0AC0FBD1F0A0F1B1FF801FB
:1049A00080839183A901C80102960E947331C701D7
:1049B00067E070E00E94BD309B01B801FE013196B6
:1049C00050E040E02417350709F094C0C70167E0C4
:1049D00070E00E94BD30A90163E0440F551F6A9545
:1049E000E1F70097B1F1E5E0F0E0EC0FFD1FE40F17
:1049F000F51F1082A7E0A29FB001A39F700D1124A4
:104A0000060F171FDA011596CC24C394D12CCC0EB7
:104A1000DD1ECA0EDB1E70E060E0D801FD908D0146
:104A20006F5F7F4F2F2D207830E0062E02C0359526
:104A300027950A94E2F73081232B20832F2D2F779F
:104A4000D6012D936D018617970739F70196480F08
:104A5000591F5A01B5E0AB0EB11CE5E0F0E0EC0FD8
:104A6000FD1F4E0F5F1F87EFDA018C93F12CE12CB5
:104A70001DA61EA61FA66501CE18DF08B4E0CB1642
:104A8000D10418F083E0C82ED12C61E070E06C0FE7
:104A90007D1F6E0D7F1DA601CE018D960E94733184
:104AA000E091F002F091F1020FA52EA54DA5B601FF
:104AB00080EF92E00995E3E0EE0EF11CEA14FB04AE
:104AC000B8F20FB6F894DEBF0FBECDBFAF960FB6EB
:104AD000F894DEBF0FBECDBFDF91CF911F910F9134
:104AE000FF90EF90DF90CF90BF90AF909F908F900E
:104AF0007F90089514825F0185E0A80EB11C6B01C0
:104B000090E080E0D6017D906D010196A72DA07800
:104B1000B0E0082E02C0B595A7950A94E2F7B481DB
:104B2000AB2BA483E89477F8D5017D925D018730A3
:104B3000910541F74F5F5F4F695F7F4F389642CFD6
:104B40002F923F924F925F926F927F928F929F929D
:104B5000AF92BF92CF92DF92EF92FF920F931F938B
:104B6000CF93DF93CDB7DEB7A4970FB6F894DEBF2F
:104B70000FBECDBFF9016450710990E080E0841749
:104B800008F05AC077FD4EC1DF01A80FB91F3C9154
:104B9000373F09F03FC1462F4770542E5B0153E069
:104BA000B694A7945A95E1F727E02A9DC0012B9D62
:104BB000900D11249C01442321F0240F311D21501C
:104BC00031096230710514F1DE01119641E6242E9F
:104BD00042E0342E10E000E03D010A151B0509F00B
:104BE0004BC0552099F0687FAB014F595D4F7A015A
:104BF000DA01860D971D70E060E0E52DE150FF0BB6
:104C00008F0111966017710708F45CC089818233A7
:104C100060F5803388F4813179F048F4803109F40B
:104C200074C0AE014F5F5F4F60E080E892C0803299
:104C300009F459C08132A9F7A4960FB6F894DEBFE3
:104C40000FBECDBFDF91CF911F910F91FF90EF90DD
:104C5000DF90CF90BF90AF909F908F907F906F909C
:104C60005F904F903F902F9008958034D0F282341F
:104C700018F38038B1F6E0CFF1018080912C6D01FE
:104C800041E050E07101E40EF51EF7014080E89428
:104C900047F87401042E01C0EE0C0A94EAF7FE2DC9
:104CA000F078EF2EE428F601E1926F014F5F5F4F3D
:104CB0004830510539F70F5F1F4F1796F8E02F0E58
:104CC000311C8BCF6F5F7F4FF7014081062E01C0F3
:104CD000440F0A94EAF740785C915F77452BFC011A
:104CE0004193CF018ECF8A818430C9F0863011F193
:104CF000823059F46B8183E090E00E9497316B81A0
:104D000070E090E080E00E94750AEA81E150ED30A9
:104D100008F092CFF0E0E859FD4C0C94E5306B813F
:104D200084E090E00E94973160E081E290E00E9490
:104D30009731EBCF6B817C818D819E810E94EB301E
:104D40000E946019E2CF30E020E050E040E061E0F6
:104D500081E10E94A12470CF82E090E00E94833123
:104D600089A321E030E0AE014F5D5F4F68E0F0CFF6
:104D700083E090E00E94833189A321E030E0AE011E
:104D80004F5D5F4F62E0E4CF6091E0037091E1031B
:104D90008091E2039091E3030E94EB3069A37AA330
:104DA0008BA39CA324E030E0AE014F5D5F4F63E036
:104DB000CFCF30E020E050E040E069E0C9CF30E004
:104DC00020E050E040E065E0C3CF88E090E00E9442
:104DD0008B310E94EB3069A37AA38BA39CA324E0C0
:104DE00030E0AE014F5D5F4F66E0B2CF0E94160D1E
:104DF00089A321E030E0AE014F5D5F4F64E0A8CFB2
:104E000083E089A38AA322E030E0AE014F5D5F4FCB
:104E10006DE09ECF653271050CF00ECFDB01AF590E
:104E2000BD4F3C936F5F7F4F0196A9CE1F920F92AB
:104E30000FB60F9211242F933F934F935F936F936D
:104E40007F938F939F93AF93BF93CF93DF93EF9312
:104E5000FF93D091E900DF708091EC00C82FC17002
:104E600080FDC0E81092E9008091F000877F809378
:104E7000F00078940E946B151092E9008091F00088
:104E800088608093F000CD2BCF70C093E900FF9134
:104E9000EF91DF91CF91BF91AF919F918F917F91D2
:104EA0006F915F914F913F912F910F900FBE0F9097
:104EB0001F9018951F920F920FB60F9211242F93E7
:104EC0003F934F935F936F937F938F939F93AF9392
:104ED000BF93EF93FF938091E10082FF09C080911F
:104EE000E20082FF05C08091E1008B7F8093E100AA
:104EF0008091DA0080FF24C08091D80080FF20C01C
:104F00008091DA008E7F8093DA008091D90080FF53
:104F10009BC080E189BD82E189BD09B400FEFDCF5F
:104F200081E08093E6028091C102811109C00E9454
:104F3000BA040E94AF058091E20084608093E20091
:104F40008091E10080FF17C08091E20080FF13C0D4
:104F50008091E2008E7F8093E2008091E200806188
:104F60008093E2008091D80080628093D80019BCC1
:104F700085E08093E6028091E10084FF29C0809162
:104F8000E20084FF25C080E189BD82E189BD89B549
:104F9000982F917080FFFBCF8091D8008F7D8093F8
:104FA000D8008091E1008F7E8093E1008091E20043
:104FB0008F7E8093E2008091E20081608093E20026
:104FC0008091E702882309F445C084E08093E602DB
:104FD0008091E10083FF27C08091E20083FF23C01E
:104FE0008091E100877F8093E10082E08093E60278
:104FF0001092E7028091E1008E7F8093E100809122
:10500000E2008E7F8093E2008091E20080618093D5
:10501000E20042E060E080E00E947D058091F000C7
:1050200088608093F000FF91EF91BF91AF919F91C5
:105030008F917F916F915F914F913F912F910F9041
:105040000FBE0F901F90189519BC1092E602109297
:10505000C10276CF8091E30087FD93E09093E60252
:10506000B7CFCDB7DEB7E2970FB6F894DEBF0FBE6D
:10507000CDBF10921503109217031092160380EC07
:105080008093DA0388E193E09093DC038093DB0361
:105090001092D9031092D8031092F5021092F402E4
:1050A0001092F7021092F6021092F9021092F80292
:1050B0001092FB021092FA021092FD021092FC0272
:1050C0001092FF021092FE02109201031092000350
:1050D000109203031092020310920503109204032E
:1050E000109207031092060310920903109208030E
:1050F00010920F0310920E0389E996E09093F1024B
:105100008093F00284EF96E0909311038093100354
:1051100081E796E090930D0380930C0382E796E07D
:105120009093F3028093F20280EA95E290930B034E
:1051300080930A0384B7877F84BF0FB6F894A8953D
:1051400080916000886180936000109260000FBEC3
:1051500080E890E00FB6F89480936100909361002E
:105160000FBE85B7806885BF85B7806885BF8FE62D
:1051700096E09093C5018093C4010E94BA040E94F6
:10518000AF058091E20084608093E2007894809182
:10519000E6028823A1F01091E9001F709091EC00C5
:1051A000892F817090FD80E8182B1092E900809182
:1051B000E80083FD0E946B151F701093E90082E0E8
:1051C00084BD93E095BD9AEF97BD80936E0084E314
:1051D0000E945B0C85E30E945B0C86E30E945B0CE3
:1051E00084E90E945B0C86E90E945B0C87E90E94BF
:1051F0005B0C10928A021092950210928B02109210
:10520000960210928C02109297020E9404142FEFC3
:1052100036E741E0215030404040E1F700C0000057
:105220000E9404148091950280FF17C06FEF82E204
:1052300090E00E9497316FEF83E290E00E949731F7
:105240006FEF84E290E00E9497316FEF7FEF90E084
:1052500080E00E94B5310E94FB1090E080E00E9447
:1052600091318B3E9E4F11F00E94F6188CE090E039
:105270000E94833190E0B0E0A0E08093860290939A
:105280008702A0938802B093890282E290E00E9494
:1052900083318F3309F0EEC683E290E00E948331C0
:1052A0008C3D09F0E7C684E290E00E9483318B36A2
:1052B00009F0E0C690E080E00E9491318B3E9E4F65
:1052C00011F00E94F61882E090E00E9483318093F2
:1052D000AE020E94160D90938E0280938D0283E0A1
:1052E00090E00E948331682F70E090E080E00E949F
:1052F000750A80918F02811136C090E080E00E9493
:1053000091318B3E9E4F21F00E94F6180E94661A42
:1053100088E090E00E948B316093B6027093B702F0
:105320008093B8029093B9026E7F71F40E94661A5E
:1053300088E090E00E948B316093B6027093B702D0
:105340008093B8029093B9020E940A091092B502A4
:105350008091B60280FF04C060E086950E948B1A9F
:1053600081E080938F025098589A5198599A89B148
:105370008170499936C290E0892B8093A00280E227
:1053800091E0909391028093900268E1A62EB12C57
:10539000DD24D3948091E60210E102E1853009F426
:1053A0008AC20E940414882359F08FB7F894409160
:1053B000BB025091BC026091BD027091BE028FBFD2
:1053C000E5E9F2E0AFEAB2E010E000E0202F9191D1
:1053D0008D91891709F490C28927382F3170F32EE7
:1053E00080FD84C281FD84C282FF86C254E0F52E16
:1053F00082E089A72AA79F2181E009F480E08BA79A
:105400000E948E078160782F9DA78CA749A55AA579
:105410006BA58DA50E947C23F801E155FD4F80818D
:10542000F826F0828091B5028823D1F18091B402F0
:10543000E091B602E695E81BE0939A02823009F00B
:1054400072C2F0E0E852FB4FE4910E2F10E030EE14
:10545000E32E33E1F32E80919B02882361F01092BA
:105460009B020E948E07909399028093980210925B
:105470009D0210929C020E948E07E0919802F0918A
:1054800099028E1B9F0B8F3F9F4750F4E00FF11F37
:10549000F0939902E093980288E992E0F701099568
:1054A000E091A002EE0FEE0FE093A00289B180FB25
:1054B000442440F84999A3C280E08429E82BE09372
:1054C000A002EF70F0E0EC55FE4F808190919F02BA
:1054D000890F80939F0220E0843054F080919E02D7
:1054E0008F5F80939E0260E080E00E945B2421E059
:1054F00080919F028D3F54F480919E028150809351
:105500009E0261E080E00E945B2421E080919F0286
:10551000082E000C990B64E070E00E94D13080935B
:105520009F02222359F08FB7F8944091BB0250910B
:10553000BC026091BD027091BE028FBF86E0E7EAB7
:10554000F2E0DE01119601900D928A95E1F7F0905C
:10555000A902E090AA021091AB020091AC02109255
:10556000A9021092AA021092AB021092AC028F2DE7
:105570008E2909F448C08091A5029091A6020E944C
:105580007F079C019091A402992309F49AC52333C3
:105590003105C8F19F3F19F09F5F9093A402FF204F
:1055A00059F00E945D0B9FEF1F140CF491E0899F4E
:1055B000802D11248093A902EE2059F00E945D0BEA
:1055C0009FEF1E140CF491E0899F802D112480938D
:1055D000AA023091A9023323B1F02091AA0222231A
:1055E00091F045EB3403C0011124992309F40AC258
:1055F0009093A90245EB240390011124332309F46D
:1056000004C23093AA02812F802B09F448C08091F4
:10561000A2029091A3020E947F079C019091A10297
:10562000992309F449C525363105C8F19F3F19F082
:105630009F5F9093A102112359F00E943B0B9FEFB3
:1056400011160CF491E0899F802D11248093AB02F8
:10565000002359F00E943B0B9FEF10160CF491E0D1
:10566000899F802D11248093AC023091AB023323AB
:10567000B1F02091AC02222391F045EB3403C0013C
:105680001124992309F4C4C19093AB0245EB240380
:1056900090011124332309F4BEC13093AC028091F0
:1056A000A9029091AA02892B9091AB02892B90912B
:1056B000AC02892B11F00E94AF0986E0FE01319601
:1056C000A7EAB2E001900D928A95E1F7E09110030C
:1056D000F0911103309719F080EF92E009959FB790
:1056E000F8940091D9038091D803081708F496C163
:1056F000081B9FBFF12CE12C10E033E0632E712CCE
:1057000088248394912C54E0252EE016F10608F4A9
:1057100089C10E94F9089091AD02891721F00E9479
:10572000F9088093AD028091E6028430E1F4809123
:1057300015018F708093E9009091E80090FF13C0ED
:105740009091E602943079F48093E9009091F3000F
:105750008091F200892B39F08091E8008E77809358
:10576000E8000E94D9048091E602843009F012CE4C
:1057700083E08093E9008091E80082FF0BCE809166
:10578000E80090E085FF09C050E040E060E270E092
:10579000CE0101960E94340591E08091E8008B775C
:1057A0008093E800992309F4F5CD0091BF02109190
:1057B000C00289810115110509F4E9C18E3F09F084
:1057C00078C28A81833020F08550833008F071C21E
:1057D000EA81E83008F06DC2F0E0EB58FD4C0C9423
:1057E000E53092E0C9CD8091E602843009F43FC0F3
:1057F0001092B50280919402811117C031E030936C
:1058000094028091B602982F9170909393028E7FAC
:105810008093B6024FEF80E792E041508040904085
:10582000E1F700C000000E94A01110929202E0E493
:105830000FB6F894A895A09260000FBEE0936000A8
:1058400083B7817F846083BF83B7816083BF78948F
:10585000889583B78E7F83BF0FB6F894A895809103
:105860006000886180936000109260000FBE80919C
:10587000E502882301F10E94041480919502909121
:105880009602892B90919702892BA9F019BD09BD29
:1058900009B400FEFDCF8091D8008F7D8093D800A1
:1058A0008091E00082608093E0008091E00081FDC3
:1058B000FCCF0E9456158091E602853009F493CF03
:1058C0000E9456150E94F90810929402809193024A
:1058D000882349F08091B60281608093B60260E02F
:1058E00086950E948B1A0E94751A5BCD80E081CD4F
:1058F00042E0F42E81E07DCD0F5F1F4F0330110594
:1059000009F064CD8FEF8EA78FA718AA0E948E078B
:105910008160782F9AAB89AB4EA55FA568A98AA94B
:105920000E947C237FCD863059F4F0E0EB52FB4F90
:10593000E4910E2F10E024EFE22E23E1F22E8BCD26
:10594000893061F4E695F0E0EE52FB4FE4910E2FC2
:1059500010E095EDE92E91E1F92E7DCD8F3061F4C7
:10596000E695F0E0E153FB4FE4910E2F10E08FEF4E
:10597000E82E81E1F82E6FCD853159F4F0E0E45343
:10598000FB4FE4910E2F10E0B3E6EB2EB2E1FB2EBD
:1059900062CD883169F1833249F4EAECF4E0059193
:1059A0001491A7E8EA2EA3E1FA2E55CD04EF11E0F9
:1059B0007DE3E72E73E1F72E843209F44CCD00ED40
:1059C00017E06EE6E62E66E0F62E853209F043CD4E
:1059D0008E2F63E00E94B130E92FF0E0E953FB4FD6
:1059E000E4910E2F10E0F7E4EF2EF8E1FF2E33CD17
:1059F00008E210E0E1EBEE2EE2E1FE2E2CCD82E09B
:105A000090E05BCDD092A902F5CDD092AA02FBCD59
:105A1000D092AB023BCED092AC0241CE2091DA03C1
:105A2000020F66CE8091D80390E06091DA0370E0B7
:105A30000E94D1302091DB033091DC03280F391F05
:105A4000F901C08030901503F7EFFC15E8F4D0920F
:105A5000150320E040E06C2D81E090E00E94C80337
:105A6000309215032FB7F8948091D80390E00196F7
:105A70006091DA0370E00E94D1308093D8032FBF89
:105A8000FFEFEF1AFF0A41CEC7FE52C024E03216E4
:105A900031F0C092120390921703809216038C2D5E
:105AA0000E947606813069F08823D1F08230A9F017
:105AB000833099F010921503109217031092160379
:105AC000D1CF8093150320E040E06C2D81E090E081
:105AD0000E94C80310921503C5CF80931503C2CF4F
